:100000000C943D000C9400000C9400000C94000033
:100010000C9400000C9400000C9400000C94000060
:100020000C9400000C9400000C9400000C947900D7
:100030000C9400000C9400000C9400000C94000040
:100040000C9400000C9400000C9400000C94000030
:100050000C9400001027E80364000A00010000105F
:10006000000110000100000000000000010002007B
:1000700066000400040068000000F894EE27ECBB62
:10008000F1E0FBBFEBBFE5BF8DE0A2E0BB27ED9346
:100090008A95E9F780E094E0A0E6ED930197E9F70F
:1000A000ECE6F0E085919591009761F0A591B5910E
:1000B00005901590BF01F00105900D920197E1F7B1
:1000C000FB01F0CFEFE5EDBFE4E0EEBFC0E6D1E02D
:1000D0000C942801AA93E881E064E7B98BE18A9542
:1000E000F1F7369A349BFECF349AE4B1F5B10C9413
:1000F0009A01EA93FA93EFB7EA931A930A931BB122
:100100000CB1E12FEC7189F4E52D5394F0E0E05A45
:10011000FE4F0083E8E0E51509F455247394E8E008
:10012000E71519F47724689420F809911991E99159
:10013000EFBFF991E9911895BA93AA93AE81BF8167
:10014000A030E1E0BE0724F0EFEFF0E0EE83FF83A4
:10015000AE81BF81A130EFEFBE0724F4E1E0FFEFF5
:10016000EE83FF83AC81BD81A030E1E0BE0724F0C7
:10017000EFEFF0E0EC83FD83AC81BD81A130EFEFC8
:10018000BE0724F4E1E0FFEFEC83FD83AA81BB818D
:10019000A030E1E0BE0724F0EFEFF0E0EA83FB835C
:1001A000AA81BB81A130EFEFBE0724F4E1E0FFEFAD
:1001B000EA83FB83A881B981A030E1E0BE0724F087
:1001C000EFEFF0E0E883F983A881B981A130EFEF88
:1001D000BE0724F4E1E0FFEFE883F983AE81BF813D
:1001E0000E94F4011CF4DB98EE8103C0DB9AEE81DF
:1001F000E150E3BDAC81BD810E94F40124F4DA98A2
:10020000EC81FD8105C0DA9AEC81FD81E150FF4F60
:10021000F9BDE8BDAA81BB810E94F40124F4D998FC
:10022000EA81FB8105C0D99AEA81FB81E150FF4F49
:10023000FBBDEABDA881B9810E94F4011CF4D898E5
:10024000E88103C0D89AE881E150ECBF2896089570
:10025000EFEFEABBE0E0EBBBE8EFE7BBE0E0E8BBD9
:10026000EFEFE4BBE0E0E5BBEFEFE1BBE0E0E2BBDA
:10027000EBE6E3BFE0E0E2BFECBFE1EAEFBDEBE0BD
:10028000EEBDE0E0EDBDECBDE7BDE6BDEBBDEABD1A
:10029000E9BDE8BDE2BDECE6E5BDE0E0E4BDE3BDFF
:1002A000E9BFE5BFE4BFEBB9E8E9EAB9E6E8E0BDDC
:1002B000E0E0E0BDE3E3E9B9E0E8E8B9E0E0E0BFB1
:1002C000E0E4E7B9E6E8E6B9E0E0E0BFEDB9E6BFB3
:1002D00078940E949C010E949C010E949C01A0E0D5
:1002E000B0E02ADFA4E0F6DEE0936801F093690154
:1002F0000E94A101E8EEF3E00E94A601E4E6F0E02E
:100300000E94A601EAE0F0E00E94A601EAE0F0E027
:100310000E94D801E05DAE2F08D0AAE006D0A4E686
:10032000B0E00E94B201DECFFFCFAA935D9BFECF6B
:10033000E881ECB921960895E0E0F0E0FA93EA93C1
:100340000895A0916801B091690108950E94D301B8
:10035000DF01EAE0F0E00E94D801E05DAE2F0E94EC
:100360009501EFCF109639F080ED97E00197F1F706
:10037000A8951197C9F70895F195E195F040089572
:100380000024112490E1AA0FBB1F001C111C0E1A9F
:100390001F0A18F40E0E1F1E01C0A1609A9599F74E
:1003A000FD01D001089512D0EBDF0EF4E5DF0895D2
:1003B000E894B7FF04C0A095B09511966894F7FD36
:1003C000DBDFDEDFFD010EF4D7DF0895E894F7FFF1
:1003D00002C0D2DF6894B7FF06C0A095B095119611
:1003E00000F8039400FA089500240A160B060895F5
:00000001FF
