:060000000C943D000C947D
:1000060000000C9400000C9400000C9400000C946A
:1000160000000C9400000C9400000C9400000C945A
:1000260000000C9400000C946A000C9400000C94E0
:1000360000000C9400000C9400000C9400000C943A
:1000460000000C9400000C9400000C940000102793
:10005600E80364000A00010000100001100001001E
:100066000000000000000100020066000400040019
:1000760068000000F894EE27ECBBF1E0FBBFEBBF95
:10008600E5BF8DE0A2E0BB27ED938A95E9F780E016
:1000960094E0A0E6ED930197E9F7ECE6F0E08591B0
:1000A6009591009761F0A591B59105901590BF01C6
:1000B600F00105900D920197E1F7FB01F0CFEFE516
:1000C600EDBFE4E0EEBFC0E6D1E00C942C01EA936C
:1000D600FA93EFB7EA931A930A931BB10CB1E12F87
:1000E600EC7189F4E52D5394F0E0E05AFE4F00835D
:1000F600E8E0E51509F455247394E8E0E71519F4EA
:100106007724689420F809911991E991EFBFF99144
:10011600E99118951A937720F1F3E42D4394F0E0D2
:10012600E05AFE4F1081E8E0E41509F44424F894FF
:100136007A947894E12F19910895BA93AA93AE818F
:10014600BF81A030E1E0BE0724F0EFEFF0E0EE83E0
:10015600FF83AE81BF81A130EFEFBE0724F4E1E05B
:10016600FFEFEE83FF83AC81BD81A030E1E0BE07E7
:1001760024F0EFEFF0E0EC83FD83AC81BD81A1308C
:10018600EFEFBE0724F4E1E0FFEFEC83FD83AA81E5
:10019600BB81A030E1E0BE0724F0EFEFF0E0EA8398
:1001A600FB83AA81BB81A130EFEFBE0724F4E1E017
:1001B600FFEFEA83FB83A881B981A030E1E0BE07A7
:1001C60024F0EFEFF0E0E883F983A881B981A1304C
:1001D600EFEFBE0724F4E1E0FFEFE883F983AE8199
:1001E600BF810E9447021CF4DB98EE8103C0DB9AB4
:1001F600EE81E150E3BDAC81BD810E94470224F44B
:10020600DA98EC81FD8105C0DA9AEC81FD81E15036
:10021600FF4FF9BDE8BDAA81BB810E94470224F4C5
:10022600D998EA81FB8105C0D99AEA81FB81E15020
:10023600FF4FFBBDEABDA881B9810E9447021CF4AD
:10024600D898E88103C0D89AE881E150ECBF289697
:100256000895EFEFEABBE0E0EBBBEFEFE7BBE0E0D2
:10026600E8BBEFEFE4BBE0E0E5BBEFEFE1BBE0E0CE
:10027600E2BBEBE6E3BFE0E0E2BFECBFE1EAEFBDE5
:10028600EBE0EEBDE0E0EDBDECBDE7BDE6BDEBBDF0
:10029600EABDE9BDE8BDE2BDECE6E5BDE0E0E4BDF2
:1002A600E3BDE9BFE5BFE4BFEBB9E8E9EAB9E6E8D3
:1002B600E0BDE0E0E0BDE3E3E9B9E0E8E8B9E0E0AD
:1002C600E0BFE6B9EDB9E6BF78940E94ED010E9461
:1002D600ED010E94ED01A0E0B0E02FDF1BDFF0E0B2
:1002E600E0936C01F0936D010E94F201AD34E0E001
:1002F600BE0709F065C00E94F7014F010E94070280
:100306000E940C028E0E9F1E0E9407028E0E9F1EDA
:100316000E94110221F4F4010E9417024F010E946B
:10032600F7015F010E9407020E940C02AE0EBF1E7B
:100336000E940702AE0EBF1E0E94110221F4F501B3
:100346000E9417025F010E94F7016F010E940702D7
:100356000E940C02CE0EDF1E0E940702CE0EDF1E8A
:100366000E94110221F4F6010E9417026F010E94F9
:10037600F7010E941C020E940C020E9421020E94A8
:100386001C020E942102E0936801F09369010E9419
:10039600110251F4E0916801F09169010E9417027F
:1003A600E0936801F09369019A928A92BA92AA92AE
:1003B600DA92CA92A0916801B0916901BEDE08C0C6
:1003C6000E94F201A134E0E0BE0711F00E94F201A2
:1003D60085CFFFCFE0E0F0E0FA93EA930895A0918D
:1003E6006C01B0916D0108950E948D00F0E0E093DC
:1003F6006A01F0936B010E948D00F0E0F097A4E68D
:10040600B0E00E94340208950E948D00F0E0F0975B
:100416000895AAE0B0E00E9434020895A0916A010E
:10042600B0916B019D970895AFEFBFEF0E94340224
:100436000895E0936801F0936901E6CFA091680101
:10044600B0916901EA0FFB1F0895F195E195F0401F
:100456000895FA9FF02DEB9FF00DEA9FE02DF10D28
:10046600089504D0F6DF0EF4F0DF0895E894F7FF60
:1004760002C0EBDF6894B7FF06C0A095B095119651
:1004860000F8039400FA089500240A160B0608954E
:00000001FF
